:100000000C94A6000C94CE000C94CE000C94CE0060
:100010000C94CE000C94CE000C94CE000C94CE0028
:100020000C94CE000C94CE000C94CE000C94BF1314
:100030000C94CE000C94CE000C94CE000C94CE0008
:100040000C947D140C94CE000C944A160C949C16BF
:100050000C94CE000C94CE000C94CE000C94CE00E8
:100060000C94CE000C94CE00084AD73B3BCE016ED8
:1000700084BCBFFDC12F3D6C74319ABD56833DDAFF
:100080003D00C77F11BED9E4BB4C3E916BAAAABE0E
:10009000000000803F05A84CCDB2D44EB93836A937
:1000A000020C50B9918688083CA6AAAA2ABE000074
:1000B00000803F00000000240027002A000000000C
:1000C00000250028002B0000000000230026002946
:1000D00000040404040404040402020202020203F1
:1000E00003030303030102040810204080010204FB
:1000F000081020010204081020000000070002017F
:1001000000000304060000000000000000494E4605
:10011000494E4954594E414ECDCCCC3D0AD7233C93
:1001200017B7D13877CC2B329595E6241FB14F0AFB
:10013000000020410000C84200401C4620BCBE4CCC
:10014000CA1B0E5AAEC59D7448020B1811241FBE5F
:10015000CFEFD8E0DEBFCDBF11E0A0E0B1E0EEE12F
:10016000FFE302C005900D92AE38B107D9F713E056
:10017000AEE8B1E001C01D92A335B107E1F711E08F
:10018000CCE4D1E004C02297FE010E94471FC8348E
:10019000D107C9F70E9462180C948D1F0C940000BF
:1001A000A0E0B0E0E6EDF0E00C945C1FEC015B0138
:1001B0006115710519F0FB0191838083F9908F2DF2
:1001C00090E00E944B1F892BC9F7FDE2FF1621F436
:1001D000F990EE24E39405C02BE2F21609F4F990AD
:1001E000EE248E0101501040C8016DE071E043E043
:1001F00050E00E943002892B01F58E010E5F1F4FE7
:10020000C80160E171E045E050E00E943002892BB6
:1002100019F48E01095F1F4FA114B10419F0F50103
:1002200011830083E0FC04C070E090E080E814C01B
:1002300070E090E080E86FEF08C1C80165E171E00F
:1002400043E050E00E943002892B69F4A114B1040C
:1002500029F470E090E080EC6FE7F7C02296F5019A
:10026000D183C083F6CF8824992440E050E060E039
:1002700070E0EF2DE053EA30A0F5F2E0EF2A8E2D8A
:1002800090E09C0128703070E2FE06C0232B79F5C7
:100290000894811C911C2BC0232B19F00894810811
:1002A0009108DB01CA0112E0880F991FAA1FBB1F2A
:1002B0001A95D1F7480F591F6A1F7B1F440F551F0E
:1002C000661F771F4E0F511D611D711D483929E9A9
:1002D000520729E9620729E1720748F084E0E82A19
:1002E00006C0EE3F31F4E3FC39C098E0E92AF9900A
:1002F000C0CFE53311F0E53189F529912D3219F49C
:10030000E0E1EE2A05C02B3219F081E090E003C055
:10031000299182E090E0E22FE053EA3018F0C81B08
:10032000D90B1CC020E030E0FCE020383F075CF433
:10033000C901880F991F880F991F280F391F220F95
:10034000331F2E0F311DE991E053EA3068F3E4FECC
:1003500003C0309521953F4F820E931ECE2CDD2495
:10036000E1FE07C0A114B10421F02197F501D1836A
:10037000C083CB01BA010E947A1C7B018C01F3E09F
:10038000CF22DD2423E0C216D10421F417FB1095FF
:1003900017F9109557016801C801B70120E030E056
:1003A00040E050E00E94DA1B882309F44AC097FE1F
:1003B0000DC02CE2E22E21E0F22E9094819491085F
:1003C0009394C0E2D0E000E010E012C094E4E92E83
:1003D00091E0F92EF6CFF701259135914591549191
:1003E000C601B5010E94E01D5B016C018C1A9D0ADB
:1003F0008C169D0684F7D595C7950F5F1F4F063065
:10040000110529F08CEF9FEFE80EF91EF1CFC50121
:10041000D6017C018D018C2D880F8D2D881F8F3F7B
:1004200051F0C601B50120E030E040E050E00E940C
:10043000DA1B882331F482E290E090935203809398
:1004400051037E2D9F2D802F612F272F392F482F6D
:10045000562FB901CA01CDB7DEB7ECE00C94781F76
:10046000FB01DC014150504088F08D9181341CF03B
:100470008B350CF4805E659161341CF06B350CF4A7
:10048000605E861B611171F3990B0895881BFCCF88
:1004900081E192E00E947B128091360190913701B8
:1004A000A0913801B091390180935E0290935F0270
:1004B000A0936002B093610280913E0190913F0150
:1004C000A0914001B0914101809362029093630238
:1004D000A0936402B0936502809146019091470118
:1004E000A0914801B0914901809366029093670200
:1004F000A0936802B093690208958091580160E06A
:100500000E94A2158091620160E00E94A215809174
:100510006C0160E00E94A21508952F923F924F92C5
:100520005F926F927F928F929F92AF92BF92CF9283
:10053000DF92EF92FF920F931F93DF93CF93CDB78C
:10054000DEB7A0970FB6F894DEBF0FBECDBF809187
:10055000210290912202A0912302B09124028D8F5A
:100560009E8FAF8FB8A38091150290911602A09133
:100570001702B0911802898F9A8FAB8FBC8F6D8D47
:100580007E8D8F8D98A1298D3A8D4B8D5C8D0E942B
:10059000001B7B018C0120E030E040E050E00E9435
:1005A000D51D181624F017FB109517F91095E09239
:1005B0002D02F0922E0200932F02109330028091B0
:1005C000250290912602A0912702B09128028D8BDE
:1005D0009E8BAF8BB88F8091190290911A02A091D7
:1005E0001B02B0911C02898B9A8BAB8BBC8B6D89E3
:1005F0007E898F89988D29893A894B895C890E94E7
:10060000001B7B018C0120E030E040E050E00E94C4
:10061000D51D181624F017FB109517F91095E092C8
:100620003102F0923202009333021093340280912F
:10063000290290912A02A0912B02B0912C028D8761
:100640009E87AF87B88B80911D0290911E02A0916A
:100650001F02B091200289879A87AB87BC876D857E
:100660007E858F85988929853A854B855C850E9492
:10067000001B7B018C0120E030E040E050E00E9454
:10068000D51D181624F017FB109517F91095E09258
:100690003502F09236020093370210933802E09050
:1006A0005E02F0905F020091600210916102C80149
:1006B000B701298D3A8D4B8D5C8D0E94E01D0E9403
:1006C000491C0E947C1C1B012C0160933902709311
:1006D0003A0280933B0290933C02609062027090D9
:1006E00063028090640290906502C401B30129897D
:1006F0003A894B895C890E94E01D0E94491C0E9436
:100700007C1C6D837E838F83988760933D027093FA
:100710003E0280933F0290934002A0906602B09008
:100720006702C0906802D0906902C601B5012985B0
:100730003A854B855C850E94E01D0E94491C0E9401
:100740007C1C69837A838B839C83609341027093C2
:1007500042028093430290934402C801B7012D8D59
:100760003E8D4F8D58A10E94E01D0E94491C0E94A1
:100770007C1C7B018C016093450270934602809340
:10078000470290934802C401B3012D893E894F89E5
:10079000588D0E94E01D0E94491C0E947C1C3B0158
:1007A0004C016093490270934A0280934B029093EC
:1007B0004C02C601B5012D853E854F8558890E94A2
:1007C000E01D0E94491C0E947C1C5B016C0160932F
:1007D0004D0270934E0280934F0290935002C801D5
:1007E000B701A20191010E94001B7B018C0120E056
:1007F00030E040E050E00E94D51D181624F017FBB1
:10080000109517F91095E0925102F0925202009360
:10081000530210935402C401B3012D813E814F81D4
:1008200058850E94001B7B018C0120E030E040E0F5
:1008300050E00E94D51D181624F017FB109517F9EB
:100840001095E0925502F0925602009357021093D1
:100850005802C601B50129813A814B815C810E9411
:10086000001B7B018C0120E030E040E050E00E9462
:10087000D51D181624F017FB109517F91095E09266
:100880005902F0925A0200935B0210935C0210E04E
:100890006D8D7E8D8F8D98A1298D3A8D4B8D5C8DC0
:1008A0000E94D51D88230CF011E010937A0110925C
:1008B0007B016D897E898F89988D29893A894B8939
:1008C0005C890E94D51D88231CF081E080937B0108
:1008D00010927C016D857E858F85988929853A8562
:1008E0004B855C850E94D51D88231CF081E0809398
:1008F0007C0180915601612F0E94A21580916001B8
:1009000060917B010E94A21580916A0160917C0137
:100910000E94A215A0960FB6F894DEBF0FBECDBF01
:10092000CF91DF911F910F91FF90EF90DF90CF90CB
:10093000BF90AF909F908F907F906F905F904F90FF
:100940003F902F9008952F923F924F925F926F9217
:100950007F928F929F92AF92BF92CF92DF92EF924F
:10096000FF920F931F93DF93CF93CDB7DEB72897F6
:100970000FB6F894DEBF0FBECDBF6D837E838F832D
:10098000988760902D0270902E0280902F02909098
:100990003002209031023090320240903302509069
:1009A00034028091350290913602A0913702B091C5
:1009B000380289839A83AB83BC83A0905102B090A4
:1009C0005202C0905302D0905402E0905502F09031
:1009D00056020091570210915802C601B501A801B4
:1009E00097010E94D51D18168CF4E0905902F090E2
:1009F0005A0200915B0210915C02C801B701A60186
:100A000095010E94D51D18168CF413C0A0905902B0
:100A1000B0905A02C0905B02D0905C02C601B50152
:100A2000A80197010E94D51D18161CF4C601B50136
:100A300002C0C801B7010E94491C5B016C01C401DE
:100A4000B301A40193010E94E01D7B018C01C2014E
:100A5000B101A20191010E94E01D9B01AC01C801FE
:100A6000B7010E94011B7B018C0169817A818B8116
:100A70009C819B01AC010E94E01D9B01AC01C8015F
:100A8000B7010E94011B0E944D1E20EC31EE44E68E
:100A90005CE40E94E01D2D813E814F8158850E94BB
:100AA000E11B7B018C01C601B5010E947C1C9B01EE
:100AB000AC01C801B7010E94E11B0E94491C9B01C7
:100AC000AC01CA0128960FB6F894DEBF0FBECDBFA9
:100AD000CF91DF911F910F91FF90EF90DF90CF901A
:100AE000BF90AF909F908F907F906F905F904F904E
:100AF0003F902F9008956091590270915A02809111
:100B00005B0290915C0220E030E040E050E00E9407
:100B1000D51D18166CF460914E0170914F018091B3
:100B20005001909151010E947C1C0E94A3040895E1
:100B300060914A0170914B0180914C0190914D015F
:100B40000E947C1C0E94A30408951F93182F80917B
:100B5000520190915301892B61F0812F0E94F6156B
:100B6000892BA1F4812F0E94F61520E0892B79F4BE
:100B70000BC0812F0E94F615892B41F0812F0E9416
:100B8000F61520E0892B19F021E001C020E0822F2A
:100B90001F910895CF92DF92EF92FF920F931F93D0
:100BA000D62EE216F3060407150759F00E94A50594
:100BB000882379F0CC2069F404C080E0CC2011F4C3
:100BC0000DC080E01F910F91FF90EF90DF90CF90CC
:100BD00008958D2D0E94A505882379F781E0F2CF35
:100BE000CF92DF92EF92FF920F931F93D82EC62ED3
:100BF000042F0E94F6157C018C2D0E94F61597019A
:100C0000220F331F282B392B10E0000F111F000F6C
:100C1000111F202B312B2330310501F124303105F8
:100C20004CF421303105A9F022303105A4F4232BF6
:100C300071F018C02530310551F0253031055CF0D8
:100C40002630310559F02730310561F402C08D2D71
:100C500003C08C2D04C08C2D61E002C08D2D60E09E
:100C60000E94A21585E090E00E941E151F910F9131
:100C7000FF90EF90DF90CF9008952F923F924F9288
:100C80005F926F927F928F929F92AF92BF92CF921C
:100C9000DF92EF92FF920F931F93DF93CF93CDB725
:100CA000DEB72A970FB6F894DEBF0FBECDBF6F83B5
:100CB000788789879A878091580161E00E94A21500
:100CC0008091620161E00E94A21580916C0161E057
:100CD0000E94A215A0905102B0905202C0905302FF
:100CE000D0905402E0905502F090560200915702C5
:100CF00010915802C601B501A80197010E94D51DA7
:100D000018161CF4C601B50102C0C801B7010E9443
:100D1000491CA0905902B0905A02C0905B02D0903A
:100D20005C020E947C1C7B018C01C601B501A801FC
:100D300097010E94D51D18161CF4C601B50102C00A
:100D4000C801B7010E94491C60937202709373023C
:100D5000809374029093750222E030E040E050E00E
:100D60000E94161F662477244301621A730A840ABC
:100D7000950A2F81388549855A852F3F8FE338079B
:100D800080E0480780E058076CF0CA01B90128EEFE
:100D900033E040E050E00E94161F3093770220932A
:100DA000760204C010927702109276026B827C82E7
:100DB0008D829E82130124016091390270913A0262
:100DC00080913B0290913C020E94491C5B016C01A6
:100DD00060914502709146028091470290914802CD
:100DE0000E94491C7B018C0180915A0160915C0139
:100DF000A6019501C0907A010E94CA058A8360917C
:100E00003D0270913E0280913F02909140020E940B
:100E1000491C5B016C016091490270914A0280910A
:100E20004B0290914C020E94491C7B018C018091E5
:100E3000640160916601A6019501C0907B010E944A
:100E4000CA058983609141027091420280914302F8
:100E5000909144020E94491C5B016C0160914D021B
:100E600070914E0280914F02909150020E94491C55
:100E70007B018C0180916E0160917001A60195014A
:100E8000C0907C010E94CA05182F9A81992309F409
:100E900054C0C401B3010E947C1C209151023091C6
:100EA000520240915302509154020E94011B0E9431
:100EB000491C3B014C011616170618061906ECF5DD
:100EC000809154016091560140917A010E94F00591
:100ED0008091720290917302A0917402B091750298
:100EE000681A790A8A0A9B0A80917A01882379F024
:100EF0006091390270913A0280913B0290913C02DC
:100F000020E030E040E85FE30E94011B0EC06091EA
:100F1000390270913A0280913B0290913C0220E0AC
:100F200030E040E85FE30E94001B60933902709359
:100F30003A0280933B0290933C02A981AA2309F4D0
:100F400061C06B817C818D819E810E947C1C20917F
:100F500055023091560240915702509158020E941A
:100F6000011B0E94491C6B837C838D839E83161614
:100F70001706180619060CF045C080915E016091B5
:100F8000600140917B010E94F00580917202909176
:100F90007302A0917402B09175022B813C814D8146
:100FA0005E81281B390B4A0B5B0B2B833C834D83E3
:100FB0005E8380917B01882379F060913D0270917E
:100FC0003E0280913F029091400220E030E040E8F4
:100FD0005FE30E94011B0EC060913D0270913E02D2
:100FE00080913F029091400220E030E040E85FE3D2
:100FF0000E94001B60933D0270933E0280933F026B
:1010000090934002112309F45BC0C201B1010E9418
:101010007C1C2091590230915A0240915B02509100
:101020005C020E94011B0E94491C1B012C01161628
:101030001706180619060CF043C0809172019091B2
:101040007301892B41F48091680160916A0140919C
:101050007C010E94F0058091720290917302A09130
:101060007402B0917502281A390A4A0A5B0A809103
:101070007C01882379F06091410270914202809155
:1010800043029091440220E030E040E85FE30E9498
:10109000011B0EC060914102709142028091430297
:1010A0009091440220E030E040E85FE30E94001BA2
:1010B00060934102709342028093430290934402F2
:1010C00020917602309177021216130644F4B9018A
:1010D000882777FD8095982F0E94C51404C08F81C2
:1010E00098850E941E153A81332309F065CE498107
:1010F000442309F061CE112309F05ECE80912102D4
:1011000090912202A0912302B091240280931502B3
:1011100090931602A0931702B093180280912502B3
:1011200090912602A0912702B09128028093190283
:1011300090931A02A0931B02B0931C028091290283
:1011400090912A02A0912B02B0912C0280931D0253
:1011500090931E02A0931F02B09320020E948D0262
:101160002A960FB6F894DEBF0FBECDBFCF91DF91A8
:101170001F910F91FF90EF90DF90CF90BF90AF90B5
:101180009F908F907F906F905F904F903F902F90A7
:1011900008950E947D0280E090E0A0E0B0E080939E
:1011A000150290931602A0931702B0931802809331
:1011B000190290931A02A0931B02B0931C02809311
:1011C0001D0290931E02A0931F02B09320028093F1
:1011D000210290932202A0932302B09324028093D1
:1011E000250290932602A0932702B09328028093B1
:1011F000290290932A02A0932B02B0932C02809193
:10120000540161E00E9463158091560161E00E94E3
:1012100063158091580161E00E94631580915A0125
:1012200062E00E94631580915C0162E00E94631598
:1012300080915E0161E00E9463158091600161E030
:101240000E9463158091620161E00E9463158091A4
:10125000640162E00E9463158091660162E00E9471
:1012600063158091680161E00E94631580916A01B5
:1012700061E00E94631580916C0161E00E9463153A
:1012800080916E0162E00E9463158091700162E0BE
:101290000E9463150E948D020895DF93CF93CDB70E
:1012A000DEB72A970FB6F894DEBF0FBECDBF282F4A
:1012B00019821A821B821C82FE01359686E0DF01AC
:1012C0001D928A95E9F790E024C0E60FF71F808110
:1012D0009F5F8217F1F4DE0111969E01255F3F4F5B
:1012E00009C0E60FF71F8081882361F0803251F03A
:1012F0008D939F5FE92FF0E0E417F5071CF4A21728
:10130000B30779F7CE01019660E070E00E94D0004B
:1013100009C0E92FF0E0E417F507BCF260E070E0E7
:1013200080E090E02A960FB6F894DEBF0FBECDBFE6
:10133000CF91DF9108952F923F924F925F926F92DB
:101340007F928F929F92AF92BF92CF92DF92EF9255
:10135000FF920F931F93DF93CF93CDB7DEB7A5977F
:101360000FB6F894DEBF0FBECDBF9DA38CA34B017B
:10137000DC018C918F3209F4C6C790E009C02CA122
:101380003DA1E20FF31F8081843209F493C49F5F73
:10139000E92FF0E0E815F90594F390E008C0ACA15E
:1013A000BDA1EA0FFB1F80818734A1F19F5FE92F68
:1013B000F0E0E815F9059CF390E008C02CA13DA1F0
:1013C000E20FF31F8081883529F19F5FE92FF0E05C
:1013D000E815F9059CF390E008C0ACA1BDA1EA0FA7
:1013E000FB1F80818935B1F09F5FE92FF0E0E815A0
:1013F000F9059CF390E008C02CA13DA1E20FF31F7A
:1014000080818A3539F09F5FE92FF0E0E815F90512
:101410009CF350C487E46CA17DA1A4010E944D09F6
:101420000E94491C6F8B643068F080E090E0A0E07F
:10143000B0E089839A83AB83BC832C013D015C01BE
:101440006D018EC080915D02882309F447C090E051
:1014500008C0ACA1BDA1EA0FFB1F8081883539F01F
:101460009F5FE92FF0E0E815F9059CF36BC788E56D
:101470006CA17DA1A4010E944D095B016C0190E06B
:1014800008C02CA13DA1E20FF31F8081893539F0FE
:101490009F5FE92FF0E0E815F9059CF35CC789E54B
:1014A0006CA17DA1A4010E944D092B013C0190E09B
:1014B00008C0ACA1BDA1EA0FFB1F80818A3539F0BD
:1014C0009F5FE92FF0E0E815F9059CF34DC78AE529
:1014D0006CA17DA1A4010E944D0934C088E56CA1D6
:1014E0007DA1A4010E944D092091150230911602A0
:1014F00040911702509118020E94011B5B016C0180
:1015000089E56CA17DA1A4010E944D0920911902D9
:1015100030911A0240911B0250911C020E94011B43
:101520002B013C018AE56CA17DA1A4010E944D091B
:1015300020911D0230911E0240911F025091200205
:101540000E94011B69837A838B839C8369817A81E2
:101550008B819C810E94491C70937501609374017A
:10156000BF89B43109F42DC2B53158F4B43020F438
:10157000B23008F089C01DC0EF89E43009F08CC397
:1015800011C2FF89FE3109F48EC2FF3138F4F53102
:1015900009F44CC2FC3109F07FC335C32F892B35C8
:1015A00009F458C32C3509F458C32A3509F074C31B
:1015B0004DC3A0922102B0922202C0922302D09287
:1015C00024024092250250922602609227027092D5
:1015D000280289819A81AB81BC81809329029093F2
:1015E0002A02A0932B02B0932C020E948D026091DC
:1015F00074017091750181E192E00E94D11290E036
:1016000008C0ACA1BDA1EA0FFB1F8081873439F06F
:101610009F5FE92FF0E0E815F9059CF3B2C6BF899A
:10162000B130F9F486E46CA17DA1A4010E944D09BA
:101630007B018C0160936A0270936B0280936C0251
:1016400090936D02C801B70120E030E040E050E027
:101650000E94D51D18162CF4C801B7010E94A304DE
:1016600002C00E947B0560936E0270936F028093AC
:1016700070029093710260916E0270916F0280917E
:10168000700290917102DFC289E46CA17DA1A40176
:101690000E944D09209115023091160240911702C7
:1016A000509118020E94011B6C8F7D8F8E8F9F8F2F
:1016B0008AE46CA17DA1A4010E944D09E090190269
:1016C000F0901A0200911B0210911C02A8019701D0
:1016D0000E94011B688F798F8A8F9B8F6091150202
:1016E0007091160280911702909118022C8D3D8DF9
:1016F0004E8D5F8D0E94001B6B877C878D879E8738
:10170000C801B701288D398D4A8D5B8D0E94001B61
:101710006F83788789879A87C601B5012C8D3D8DA7
:101720004E8D5F8D0E94001B5B016C01C301B201F5
:10173000288D398D4A8D5B8D0E94001B7B018C01A9
:10174000EF89E23091F4C8019501A6010E94741B53
:101750006B8B7C8B8D8B9E8B6F81788589859A8531
:101760002B853C854D855E8512C06F817885898586
:101770009A852B853C854D855E850E94741B6B8BFD
:101780007C8B8D8B9E8BB701C8019501A6010E94B1
:10179000741B7B018C012B893C894D895E890E94D9
:1017A000DA1B181654F0C801B7012BED3FE049ECE5
:1017B00050E40E94011B7B018C01C801B7012B89F9
:1017C0003C894D895E890E94001B6F87788B898BCD
:1017D0009A8B6B857C858D859E859B01AC010E94D3
:1017E000E01D7B018C016F81788589859A859B013D
:1017F000AC010E94E01D9B01AC01C801B7010E9431
:10180000011B0E944D1E2B013C012F8538894989FF
:101810005A890E94E01D2091760130917701409114
:101820007801509179010E94E11B0E94C71B0E9420
:10183000491C7E836D8351E0252E312CCB01AA27D4
:1018400097FDA095BA2F88A399A3AAA3BBA3A3C071
:101850009F89933011F4910104C02D813E8122199A
:101860003309B901882777FD8095982F0E947C1C49
:101870007B018C0168A179A18AA19BA10E947C1C9B
:101880009B01AC01C801B7010E94E11B9B01AC01A7
:101890006F85788989899A890E94E01D9B01AC0136
:1018A0006B897C898D899E890E94011B7B018C013B
:1018B000C8010E94DE1B5B016C01B701C8010E94D8
:1018C000431E7B018C01C301B201A60195010E9458
:1018D000E01D9B01AC016C8D7D8D8E8D9F8D0E94D6
:1018E000011B609321027093220280932302909344
:1018F0002402C301B201A80197010E94E01D9B01CF
:10190000AC01688D798D8A8D9B8D0E94011B60933F
:1019100025027093260280932702909328028981E2
:101920009A81AB81BC818093290290932A02A09373
:101930002B02B0932C020E948D02E0906A02F0907C
:101940006B0200916C0210916D02C801B70120E09A
:1019500030E040E050E00E94D51D18162CF4C8017C
:10196000B7010E94A30402C00E947B0560936E022F
:1019700070936F02809370029093710260916E0277
:1019800070916F0280917002909171020E943D06E9
:101990000894211C311CAD81BE81A215B3050CF049
:1019A00057CF89C180E56CA17DA1A4010E944D099A
:1019B0000E94491C882777FD8095982F0E94C514A6
:1019C0007AC18091320190913301A0913401B0919C
:1019D000350180935E0290935F02A0936002B09302
:1019E000610280913A0190913B01A0913C01B0913C
:1019F0003D018093620290936302A0936402B093CE
:101A000065028091420190914301A0914401B091FF
:101A100045018093660290936702A0936802B09399
:101A2000690280E792E4A1EABCE334C08091360108
:101A300090913701A0913801B091390180935E02F5
:101A400090935F02A0936002B093610280913E0187
:101A500090913F01A0914001B091410180936202B9
:101A600090936302A0936402B09365028091460153
:101A700090914701A0914801B0914901809366027D
:101A800090936702A0936802B093690280E090E0AF
:101A9000A0E0BFE38093760190937701A093780153
:101AA000B0937901F6C088E56CA17DA1A4010E94E4
:101AB0004D092B013C0189E56CA17DA1A4010E9487
:101AC0004D097B018C018AE56CA17DA1A4010E94D6
:101AD0004D095B016C0180915D02882309F449C0C6
:101AE00090E008C02CA13DA1E20FF31F8081883552
:101AF00039F09F5FE92FF0E0E815F9059CF34AC43F
:101B000090E008C0ACA1BDA1EA0FFB1F8081893520
:101B100039F09F5FE92FF0E0E815F9059CF343C425
:101B200090E008C02CA13DA1E20FF31F80818A350F
:101B300039F09F5FE92FF0E0E815F9059CF33CC40C
:101B4000409221025092220260922302709224025B
:101B5000E0922502F09226020093270210932802B9
:101B6000A0922902B0922A02C0922B02D0922C029B
:101B700044C0C801B7012091190230911A02409166
:101B80001B0250911C020E94011B7B018C01C601AB
:101B9000B50120911D0230911E0240911F0250910B
:101BA00020020E94011B5B016C0160911502709183
:101BB00016028091170290911802A30192010E94CF
:101BC000011B609321027093220280932302909361
:101BD0002402C701D8018093250290932602A09386
:101BE0002702B0932802C501D60180932902909361
:101BF0002A02A0932B02B0932C020E948D020E9415
:101C00007B050E943D0680E090E0A0E0B0E080937C
:101C1000210290932202A0932302B0932402809386
:101C2000250290932602A0932702B0932802809366
:101C3000290290932A02A0932B02B0932C020E94B7
:101C40008D020E947B050E943D0635C081E0809395
:101C50005D0231C010925D022EC080E090E0A0E0F5
:101C6000B0E08093150290931602A0931702B093F0
:101C700018028093190290931A02A0931B02B0934A
:101C80001C0280931D0290931E02A0931F02B0932A
:101C900020020E948D020FC08FE293E063E071E0AA
:101CA0000E94AA198FE293E06F894AE050E00E94F7
:101CB0004C1901C01F8A90E008C0ACA1BDA1EA0F79
:101CC000FB1F80818D3439F09F5FE92FF0E0E8152C
:101CD000F9059CF31AC08DE46CA17DA1A4010E94BA
:101CE0004D090E944E1C7B018C016F8B662369F0AD
:101CF0008FE293E06AE071E00E94AA198FE293E01C
:101D00006E2D4AE050E00E944C1990E008C02CA1D2
:101D10003DA1E20FF31F8081843239F09F5FE92FEC
:101D2000F0E0E815F9059CF3E2C284E26CA17DA124
:101D3000A4010E944D090E944E1C6F8B6430E1F09B
:101D4000653040F46230E1F06330C0F4613009F096
:101D5000CEC218C08F89863059F0863058F087304F
:101D600029F0883009F0C3C290E0AEC290E05CC2B6
:101D700090E0E1C190E0C4C190E060C190E0FFC09C
:101D800090E08CC090E008C0ACA1BDA1EA0FFB1FA1
:101D90008081883539F09F5FE92FF0E0E815F9057B
:101DA0009CF316C088E56CA17DA1A4010E944D0999
:101DB0000E94491CDC01CB01809354019093550192
:101DC00061E00E9463158091540160E00E94A215B9
:101DD00090E008C02CA13DA1E20FF31F808189355E
:101DE00039F09F5FE92FF0E0E815F9059CF316C084
:101DF00089E56CA17DA1A4010E944D090E94491CA6
:101E0000DC01CB0180935E0190935F0161E00E9451
:101E1000631580915E0160E00E94A21590E008C009
:101E2000ACA1BDA1EA0FFB1F80818A3539F09F5F0D
:101E3000E92FF0E0E815F9059CF365C28AE56CA18D
:101E40007DA1A4010E944D090E94491C9B01AC0187
:101E500080916801909169018617970709F453C230
:101E60003093690120936801809172019091730110
:101E7000019729F481E192E00E94B81344C2862FB1
:101E800061E00E946315809168016DC02CA13DA1A5
:101E9000E20FF31F8081883539F09F5FE92FF0E072
:101EA000E815F9059CF316C088E56CA17DA1A40195
:101EB0000E944D090E94491CDC01CB018093560110
:101EC0009093570161E00E9463158091560160E094
:101ED0000E94A21590E008C0ACA1BDA1EA0FFB1FB3
:101EE0008081893539F09F5FE92FF0E0E815F90529
:101EF0009CF316C089E56CA17DA1A4010E944D0947
:101F00000E94491CDC01CB01809360019093610128
:101F100061E00E9463158091600160E00E94A2155B
:101F200090E008C02CA13DA1E20FF31F80818A350B
:101F300039F09F5FE92FF0E0E815F9059CF3E3C164
:101F40008AE56CA17DA1A4010E944D090E94491C53
:101F5000DC01CB0180936A0190936B0161E00E94E8
:101F6000631580916A0160E00E94A215CCC1ACA10A
:101F7000BDA1EA0FFB1F8081883539F09F5FE92FF3
:101F8000F0E0E815F9059CF311C088E56CA17DA18E
:101F9000A4010E944D090E94491CDC01CB018093E1
:101FA0005A0190935B0162E00E94631590E008C0C3
:101FB0002CA13DA1E20FF31F8081893539F09F5F8D
:101FC000E92FF0E0E815F9059CF311C089E56CA153
:101FD0007DA1A4010E944D090E94491CDC01CB0196
:101FE000809364019093650162E00E94631590E024
:101FF00008C0ACA1BDA1EA0FFB1F80818A3539F072
:102000009F5FE92FF0E0E815F9059CF37CC18AE5B4
:102010006CA17DA1A4010E944D090E94491CDC0114
:10202000CB0180936E0190936F015EC02CA13DA106
:10203000E20FF31F8081883539F09F5FE92FF0E0D0
:10204000E815F9059CF311C088E56CA17DA1A401F8
:102050000E944D090E94491CDC01CB0180935C0168
:1020600090935D0162E00E94631590E008C0ACA10E
:10207000BDA1EA0FFB1F8081893539F09F5FE92FF1
:10208000F0E0E815F9059CF311C089E56CA17DA18C
:10209000A4010E944D090E94491CDC01CB018093E0
:1020A00066019093670162E00E94631590E008C0AA
:1020B0002CA13DA1E20FF31F80818A3539F09F5F8B
:1020C000E92FF0E0E815F9059CF31DC18AE56CA144
:1020D0007DA1A4010E944D090E94491CDC01CB0195
:1020E000809370019093710162E00E9463150BC1AF
:1020F000ACA1BDA1EA0FFB1F80818A3539F09F5F3B
:10210000E92FF0E0E815F9059CF3FDC08AE56CA124
:102110007DA1A4010E944D090E94491C7093730186
:1021200060937201F0C02CA13DA1E20FF31F8081EA
:10213000883539F09F5FE92FF0E0E815F9059CF349
:102140001EC088E56CA17DA1A4010E944D09AB01D0
:10215000BC0140933601509337016093380170936E
:10216000390140935E0250935F0260936002709366
:1021700061028FE293E022E030E00E94911A90E049
:1021800008C0ACA1BDA1EA0FFB1F8081893539F0E1
:102190009F5FE92FF0E0E815F9059CF316C089E58B
:1021A0006CA17DA1A4010E944D0960933E01709332
:1021B0003F018093400190934101609362027093CC
:1021C0006302809364029093650290E008C02CA1A2
:1021D0003DA1E20FF31F80818A3539F09F5FE92F1F
:1021E000F0E0E815F9059CF38EC08AE56CA17DA1AD
:1021F000A4010E944D0960934601709347018093AA
:10220000480190934901609366027093670280933E
:1022100068029093690277C0ACA1BDA1EA0FFB1FD1
:102220008081883541F09F5FE92FF0E0E815F905DE
:102230009CF390E00AC088E50FC02CA13DA1E20FFD
:10224000F31F8081893539F09F5FE92FF0E0E815B1
:10225000F9059CF310C089E56CA17DA1A4010E9441
:102260004D090E94491C60934A0170934B01809371
:102270004C0190934D0190E008C0ACA1BDA1EA0FC4
:10228000FB1F80818A3539F09F5FE92FF0E0E81568
:10229000F9059CF338C08AE56CA17DA1A4010E94D8
:1022A0004D090E94491C60934E0170934F01809329
:1022B00050019093510127C02CA13DA1E20FF31FC3
:1022C0008081833539F09F5FE92FF0E0E815F9054B
:1022D0009CF319C083E56CA17DA1A4010E944D0966
:1022E0000E94491C70935301609352010CC03F89B6
:1022F000332349F481E08816910429F48FE293E0B6
:1023000061E171E004C08FE293E060E071E00E945F
:10231000A41AA5960FB6F894DEBF0FBECDBFCF911D
:10232000DF911F910F91FF90EF90DF90CF90BF90C2
:10233000AF909F908F907F906F905F904F903F9065
:102340002F900895A0901502B0901602C090170229
:10235000D090180294C84090190250901A026090D0
:102360001B0270901C02A3C880911D0290911E0256
:10237000A0911F02B091200289839A83AB83BC8312
:10238000E5C8E0906A02F0906B0200916C02109137
:102390006D0258C9409015025090160260901702C5
:1023A00070901802ADCBE0901902F0901A020091E3
:1023B0001B0210911C02B4CBA0901D02B0901E0213
:1023C000C0901F02D0902002BBCB8FE293E00E940E
:1023D0005E17181619066CF58FE293E00E949217AB
:1023E000982F1092100210920F028A3009F452C0F6
:1023F000883139F48FE293E067E171E00E94A41A1A
:102400000895883219F481E08093140280911402B7
:10241000882351F480910E02E82FF0E0E257FE4F3E
:1024200090838F5F80930E029932A1F5109214026F
:10243000089580910F0290911002019690931002DE
:1024400080930F0284E690E00E941E1560910E02B8
:102450006623B9F080910F029091100285369105A4
:1024600084F08EE891E070E00E949B0980E0E82F04
:10247000F0E0E257FE4F10828F5F8038C1F7109274
:102480000E0280910F0290911002895E934014F029
:102490000E947D0208958FE293E040E052EC61E0FB
:1024A00070E00E94D716809172019091730101979C
:1024B00041F4609168017091690181E192E00E94AC
:1024C000B81380E0E82FF0E0E257FE4F10828F5FF4
:1024D0008038C1F710920E020E94C90880E291E094
:1024E00063E070E00E949B098FE293E061E171E09C
:1024F0000E94A41A0895FC01809178028C3090F417
:1025000080838F5F80937802815090E0FC01EE0F12
:10251000FF1FE80FF91FE758FD4F88EB9BE0928300
:10252000818308958FEF80830895FC0120812C30F2
:10253000B8F58181992787FD909548E850E0481BC0
:10254000590B440F551F440F551F6417750784F02E
:102550008281992787FD909548E552E0481B590BE9
:10256000440F551F440F551F641775070CF4AB013A
:1025700042505040CA01AA2797FDA095BA2F880F54
:10258000991FAA1FBB1F4FB7F89430E0F901EE0F57
:10259000FF1FE20FF31FE758FD4F928381834FBF68
:1025A0000895AF92BF92CF92DF92EF92FF920F9376
:1025B0001F93CF93DF93EC019B0182E06032780799
:1025C0000CF048C077FF03C020E030E005C0653B59
:1025D000710514F024EB30E000D000D0B901882759
:1025E00077FD8095982F2981332727FD3095E8E8DE
:1025F000AE2EB12CA21AB30AAA0CBB1CAA0CBB1C8F
:10260000CC24B7FCC094DC2CEA81FF27E7FDF095D1
:1026100028E532E02E1B3F0B220F331F220F331F02
:10262000442737FD4095542FEDB7FEB72183328301
:102630004383548320E030E040E050E004EBE02EA0
:10264000F12C012D112D0E94B71A9B010F900F90B4
:102650000F900F90CE01B9010E949512DF91CF919A
:102660001F910F91FF90EF90DF90CF90BF90AF90B0
:102670000895CF92DF92EF92FF921F93CF93DF9353
:10268000EC01162F7A01690188818C3008F064C052
:10269000862F61E00E946315888190E0FC01EE0FB7
:1026A000FF1FE80FF91FE758FD4F1F738081807CE3
:1026B000812B808380E292E08E199F0964E070E0B4
:1026C0000E94E11E698380E699E08C199D0964E00F
:1026D00070E00E94E11E6A83A8818A2F6CE00E944C
:1026E000D51E682F70E0AB01440F551F460F571FD2
:1026F000440F551F440F551F20E030E0C901840FDF
:10270000951FFC01EE0FFF1FE80FF91FE758FD4F63
:10271000808186FD15C02F5F3F4F2C30310571F74A
:1027200024C01092800082E0809381001092850086
:1027300010928400B19A80916F00826080936F0044
:102740008A2F90E0FC01EE0FFF1FE80FF91FE758FA
:10275000FD4F8081806480838881DF91CF911F91BC
:10276000FF90EF90DF90CF900895672BD1F2E8CFE4
:1027700040E252E020E639E00E94391308951F92AA
:102780000F920FB60F9211242F933F934F935F93A5
:102790006F937F938F939F93AF93BF93EF93FF9329
:1027A00080919D0287FF05C01092850010928400E1
:1027B0002BC020919D02332727FD30958091780210
:1027C00090E02817390704F580919D02992787FD2D
:1027D0009095FC01EE0FFF1FE80FF91FE758FD4F22
:1027E000808186FF11C080919D02992787FD909579
:1027F000FC01EE0FFF1FE80FF91FE758FD4F808126
:102800008F7360E00E94A21580919D028F5F80937C
:102810009D0220919D02332727FD309580917802FB
:1028200090E0281739070CF04EC080919D028C3043
:102830000CF049C0209184003091850080919D0268
:10284000992787FD9095FC01EE0FFF1FE80FF91FF8
:10285000E758FD4F81819281280F391F30938900FD
:102860002093880080919D02992787FD9095FC0117
:10287000EE0FFF1FE80FF91FE758FD4F808186FF1D
:102880002BC080919D02992787FD9095FC01EE0F4A
:10289000FF1FE80FF91FE758FD4F80818F7361E03C
:1028A0000E94A21519C080E49CE905C080918400B3
:1028B00090918500049690938900809388008FEF13
:1028C00080939D0209C080918400909185000496B8
:1028D00080549C4940F3EACFFF91EF91BF91AF91B3
:1028E0009F918F917F916F915F914F913F912F9128
:1028F0000F900FBE0F901F9018951F920F920FB65A
:102900000F9211242F933F938F939F93AF93BF9375
:102910008091A2029091A302A091A402B091A5027D
:102920003091A6020196A11DB11D232F2D5F2D37D9
:1029300020F02D570196A11DB11D2093A602809372
:10294000A2029093A302A093A402B093A502809147
:102950009E0290919F02A091A002B091A1020196C7
:10296000A11DB11D80939E0290939F02A093A0028F
:10297000B093A102BF91AF919F918F913F912F9101
:102980000F900FBE0F901F9018959B01AC017FB761
:10299000F89480919E0290919F02A091A002B09124
:1029A000A10266B5A89B05C06F3F19F00196A11D55
:1029B000B11D7FBFBA2FA92F982F8827860F911D91
:1029C000A11DB11D62E0880F991FAA1FBB1F6A9548
:1029D000D1F7BC012DC0FFB7F89480919E02909171
:1029E0009F02A091A002B091A102E6B5A89B05C0EC
:1029F000EF3F19F00196A11DB11DFFBFBA2FA92FFE
:102A0000982F88278E0F911DA11DB11DE2E0880F20
:102A1000991FAA1FBB1FEA95D1F7861B970B885EEB
:102A20009340C8F2215030404040504068517C4FA4
:102A3000211531054105510571F60895019739F0C9
:102A4000880F991F880F991F02970197F1F7089532
:102A5000789484B5826084BD84B5816084BD85B579
:102A6000826085BD85B5816085BDEEE6F0E0808140
:102A700081608083E1E8F0E0108280818260808361
:102A8000808181608083E0E8F0E0808181608083E4
:102A9000E1EBF0E0808184608083E0EBF0E0808116
:102AA00081608083EAE7F0E08081846080838081B8
:102AB0008260808380818160808380818068808360
:102AC0001092C1000895CF93DF93482F50E0CA01C0
:102AD0008B519F4FFC0134914F525F4FFA0184910B
:102AE000882369F190E0880F991FFC01ED54FF4F96
:102AF000A591B491FC01E354FF4FC591D491662395
:102B000051F42FB7F8948C91932F909589238C933F
:102B1000888189230BC0623061F42FB7F8948C91BF
:102B2000932F909589238C938881832B88832FBF43
:102B300006C09FB7F8948C91832B8C939FBFDF9135
:102B4000CF910895482F50E0CA0187509F4FFC0154
:102B50002491CA018B519F4FFC0194914F525F4FBA
:102B6000FA013491332309F440C0222351F1233078
:102B700071F0243028F42130A1F0223011F514C076
:102B80002630B1F02730C1F02430D9F404C0809150
:102B900080008F7703C0809180008F7D80938000BC
:102BA00010C084B58F7702C084B58F7D84BD09C005
:102BB0008091B0008F7703C08091B0008F7D8093AB
:102BC000B000E32FF0E0EE0FFF1FE354FF4FA5919D
:102BD000B4912FB7F894662321F48C9190958923B2
:102BE00002C08C91892B8C932FBF0895682F70E0C1
:102BF000CB0187509F4FFC012491CB018B519F4FFC
:102C0000FC0144916F527F4FFB019491992319F479
:102C100020E030E03CC0222351F1233071F0243019
:102C200028F42130A1F0223011F514C02630B1F083
:102C30002730C1F02430D9F404C0809180008F7710
:102C400003C0809180008F7D8093800010C084B588
:102C50008F7702C084B58F7D84BD09C08091B0009C
:102C60008F7703C08091B0008F7D8093B000892F53
:102C700090E0880F991F89539F4FFC01A591B49153
:102C80008C9120E030E0842311F021E030E0C90194
:102C9000089508951F920F920FB60F9211242F934B
:102CA0003F934F938F939F93EF93FF938091C00037
:102CB00082FD1DC04091C6002091E7023091E802DC
:102CC0002F5F3F4F2F7330708091E9029091EA029D
:102CD0002817390771F0E091E702F091E802E95511
:102CE000FD4F40833093E8022093E70202C08091B9
:102CF000C600FF91EF919F918F914F913F912F913E
:102D00000F900FBE0F901F901895E0913B03F0912C
:102D10003C03E05CFF4F8191919120813181805C87
:102D20009F4F821B930B60E470E00E94E11E892B91
:102D300011F00E94491608951F920F920FB60F923C
:102D400011242F933F938F939F93EF93FF932091A1
:102D50002B0330912C0380912D0390912E03281783
:102D6000390731F48091C1008F7D8093C10014C078
:102D7000E0912D03F0912E03E551FD4F20818091CC
:102D80002D0390912E0301968F73907090932E03D4
:102D900080932D032093C600FF91EF919F918F9117
:102DA0003F912F910F900FBE0F901F901895AF92EB
:102DB000BF92DF92EF92FF920F931F93CF93DF9317
:102DC000EC017A018B01DD24403081EE580780E070
:102DD000680780E0780711F0DD24D39491E0A92EF4
:102DE000B12CEC89FD89DD2069F0C50108A002C085
:102DF000880F991F0A94E2F7808360E079E08DE301
:102E000090E005C0108260E874E88EE190E0A801CF
:102E100097010E94F41E215030404040504056958A
:102E200047953795279580E12030380720F0DD2041
:102E300011F0DD24D6CFE889F9893083EA89FB894E
:102E4000208319A2EE89FF89408121E030E0C90189
:102E50000C8C02C0880F991F0A94E2F7482B40831C
:102E6000EE89FF894081C9010D8C02C0880F991F2E
:102E70000A94E2F7482B4083EE89FF894081C9011B
:102E80000E8C02C0880F991F0A94E2F7482B4083EA
:102E9000EE89FF8980810F8C02C0220F331F0A94B4
:102EA000E2F7209528232083DF91CF911F910F9186
:102EB000FF90EF90DF90BF90AF900895DC011C96DB
:102EC000ED91FC911D97E05CFF4F819191912081E4
:102ED0003181805C9F4F821B930B60E470E00E9405
:102EE000E11E0895DC011C96ED91FC911D97E05CBC
:102EF000FF4F20813181E054F040DF01AE5BBF4FD6
:102F00008D919C9111972817390719F42FEF3FEFF6
:102F100007C08D919C91E80FF91F8081282F30E028
:102F2000C9010895DC011C96ED91FC911D97E05CB0
:102F3000FF4F20813181E054F040DF01AE5BBF4F95
:102F40008D919C9111972817390719F42FEF3FEFB6
:102F500010C08D919C911197E80FF91F20818D91E0
:102F60009C91119701968F73907011969C938E93FC
:102F700030E0C9010895DC0191968C9191978823E6
:102F800039F05496ED91FC915597808186FFF9CFE9
:102F900091961C920895CF93DF93EC01EE85FF8507
:102FA000E05CFF4F20813181E054F0402F5F3F4FC4
:102FB0002F733070DF01AE5BBF4F8D919C911197E5
:102FC00028173907D1F3E05CFF4F80819181E054ED
:102FD000F040E80FF91F6083EE85FF85E05CFF4F4E
:102FE00031832083EE89FF89208181E090E00F8C7E
:102FF00002C0880F991F0A94E2F7282B208381E0F2
:1030000089A3EC89FD8980818064808381E090E0E0
:10301000DF91CF910895109232031092310388EE20
:1030200093E0A0E0B0E08093330390933403A09347
:103030003503B093360381E891E090933003809399
:103040002F0387EA92E090933C0380933B038BEE3F
:1030500092E090933E0380933D0385EC90E0909343
:10306000400380933F0384EC90E09093420380936D
:10307000410380EC90E0909344038093430381EC00
:1030800090E0909346038093450382EC90E0909308
:1030900048038093470386EC90E090934A03809323
:1030A000490384E080934B0383E080934C0387E0E3
:1030B00080934D0385E080934E0381E080934F031E
:1030C00008950895CF93DF930E9428150E946118F8
:1030D0000E944B12C5E8D6E10E94E5112097E1F36A
:1030E0000E948516F9CFCF92DF92EF92FF920F9355
:1030F0001F93CF93DF937C016B018A01C0E0D0E086
:103100000FC0D6016D916D01D701ED91FC91019039
:10311000F081E02DC7010995C80FD91F015010405B
:103120000115110571F7CE01DF91CF911F910F911C
:10313000FF90EF90DF90CF900895EF92FF920F9362
:103140001F938C01DC01ED91FC910190F081E02D49
:103150006DE009957C01D801ED91FC910190F08121
:10316000E02DC8016AE009959C012E0D3F1DC901A3
:103170001F910F91FF90EF900895CF93DF93EC0193
:103180006115710519F420E030E00FC0DB010D90EE
:103190000020E9F71197A61BB70BE881F98102809F
:1031A000F381E02DAD0109959C01C901DF91CF911B
:1031B00008954F925F927F928F929F92AF92BF92AB
:1031C000CF92DF92EF92FF920F931F93DF93CF93F3
:1031D000CDB7DEB7A1970FB6F894DEBF0FBECDBF57
:1031E0002C01742ECB01223008F42AE019A231E21E
:1031F000C32ED12CCC0EDD1E822E9924AA24BB24F2
:10320000672D752FA50194010E94F41E79018A0192
:10321000C801B701A50194010E94B61E472D461BA7
:103220000894C108D1084A3014F4405D01C0495CDB
:10323000F6014083E114F1040105110521F07E2C13
:103240005F2DC801DDCFC201B6010E94BD18A19655
:103250000FB6F894DEBF0FBECDBFCF91DF911F91A7
:103260000F91FF90EF90DF90CF90BF90AF909F9025
:103270008F907F905F904F900895DC01211531056C
:1032800041F4ED91FC910190F081E02D642F0995BE
:1032900008950E94D9180895CF92DF92EF92FF927D
:1032A0000F931F936C01E62E9A01FF2400E010E0BB
:1032B000B801A7010E943D198C01C6010E949D180A
:1032C000080F191FC8011F910F91FF90EF90DF9019
:1032D000CF900895CF92DF92EF92FF920F931F93BA
:1032E000CF93DF93EC016A017B012115310541F495
:1032F000E881F9810190F081E02D642F09951FC0CC
:103300002A303105D1F477FF17C0E881F9810190A7
:10331000F081E02D6DE209958C0144275527BA0113
:103320004C195D096E097F09CE012AE00E94D91867
:103330009801280F391F04C02AE00E94D9189C0167
:10334000C901DF91CF911F910F91FF90EF90DF9016
:10335000CF9008950E94BD1808957F928F929F92FA
:10336000AF92BF92CF92DF92EF92FF920F931F9393
:10337000CF93DF934C017A018B01722ECB01BA01FE
:10338000A80197010E949A1E882321F0C40164E2DB
:1033900071E021C0C0E0D0E057016801E894D7F89F
:1033A000C601B5012FEF3FEF4FE75FE70E949A1E7E
:1033B000882351F4C601B5012FEF3FEF4FE75FE7D8
:1033C0000E94DA1B181614F0C1E0D0E0219739F002
:1033D000C40168E271E00E94BD18EC0193C0C8010D
:1033E000B7012FEF3FEF4FE75FE40E94D51D18169E
:1033F00054F0C801B7012FEF3FEF4FE75FEC0E9499
:10340000DA1B882324F4C4016CE271E0E4CFC80124
:10341000B70120E030E040E050E00E94DA1B87FD79
:1034200003C0C0E0D0E00EC0D401ED91FC9101904A
:10343000F081E02DC4016DE20995EC0117FB1095B8
:1034400017F9109520E030E040E05FE3DD240BC089
:10345000CA01B90120E030E040E251E40E94E11BE2
:103460009B01AC01D394D71498F3C801B7010E9413
:10347000011B5B016C010E944E1C7B018C01C4018D
:10348000B801A7012AE030E00E943D19C80FD91FFA
:10349000772039F0C40160E371E00E94BD18C80FC5
:1034A000D91FC801B7010E947A1C9B01AC01C6015B
:1034B000B5010E94001B24C020E030E040E251E44E
:1034C0000E94E01D7B018C010E94491C5B016C0184
:1034D000CC24B7FCC094DC2CC401B601A5012AE0C1
:1034E00030E00E946A19C80FD91FC601B5010E94B9
:1034F0007C1C9B01AC01C801B7010E94001B7A949F
:103500007720D1F6CE01DF91CF911F910F91FF90DF
:10351000EF90DF90CF90BF90AF909F908F907F9073
:103520000895EF92FF920F931F937C010E94AD19B3
:103530008C01C7010E949D18080F191FC8011F9117
:103540000F91FF90EF900895EF92FF920F931F93CA
:103550007C010E94BD188C01C7010E949D18080FB4
:10356000191FC8011F910F91FF90EF9008952F929E
:103570003F924F925F926F927F928F929F92AF9203
:10358000BF92CF92DF92EF92FF920F931F93DF9340
:10359000CF93CDB7DEB73B014C0119012A016D89EC
:1035A0007E898F89988D6A197B098C099D09621A19
:1035B000730A840A950AA40193010E94B61EE218B8
:1035C000F30804091509A80197010E94161F2A0D86
:1035D0003B1D4C1D5D1DB901CA01CF91DF911F91AB
:1035E0000F91FF90EF90DF90CF90BF90AF909F90A2
:1035F0008F907F906F905F904F903F902F900895A5
:103600005058BB27AA270ED06EC22ED230F033D22C
:1036100020F031F49F3F11F41EF4FEC10EF4E0954A
:10362000E7FBC9C1E92F81D280F3BA17620773079C
:103630008407950718F071F49EF5B0C20EF4E0957A
:103640000B2EBA2FA02D0B01B90190010C01CA015C
:10365000A0011124FF27591B99F0593F50F4503E07
:1036600068F11A16F040A22F232F342F4427585FF9
:10367000F3CF469537952795A795F0405395C9F711
:103680007EF41F16BA0B620B730B840BBAF09150C9
:10369000A1F0FF0FBB1F661F771F881FC2F70EC068
:1036A000BA0F621F731F841F48F48795779567953B
:1036B000B795F7959E3F08F0B3CF9395880F08F024
:1036C0009927EE0F979587950895CED158F080E809
:1036D00091E009F49EEFCFD128F040E851E059F491
:1036E0005EEF09C099C15AC2E92FE0781ED268F393
:1036F000092E052AC1F3261737074807590738F05E
:103700000E2E07F8E02569F0E025E0640AC0EF63BB
:1037100007F8009407FADB01B9019D01DC01CA0139
:10372000AD01EF935DD0DFD10AD05F91552331F029
:103730002BED3FE049E450FD49EC63CF0895DF9362
:10374000DD27B92FBF7740E85FE316161706480755
:103750005B0710F4D92F2DD29F938F937F936F9394
:10376000E6D2E8E6F0E05BD1BED12F913F914F91D8
:103770005F9132D2DD2349F09058A2EA2AED3FE072
:1037800049EC5FE3D0785D274DDFDF91ACC1EFD12D
:1037900080F09F3740F491110EF401C260E070E0B8
:1037A00080E89FE3089526F01B16611D711D811DA1
:1037B00008C122C1DCD008F481E0089564D1E3950A
:1037C000A3C10CD090C157D140F04ED130F021F4BC
:1037D0005F3F19F0F0C05111E2C11EC1A6D198F3AC
:1037E0009923C9F35523B1F3951B550BBB27AA2782
:1037F00062177307840738F09F5F5F4F220F331FF4
:10380000441FAA1FA9F333D00E2E3AF0E0E830D0BF
:1038100091505040E695001CCAF729D0FE2F27D0C2
:10382000660F771F881FBB1F261737074807AB0790
:10383000B0E809F0BB0B802DBF01FF2793585F4F05
:103840002AF09E3F510568F0B6C0A9C15F3FECF376
:10385000983EDCF3869577956795B795F7959F5FCA
:10386000C9F7880F911D9695879597F90895E1E01E
:10387000660F771F881FBB1F621773078407BA077D
:1038800020F0621B730B840BBA0BEE1F88F7E095D8
:10389000089504D06894B11182C108954ED188F082
:1038A0009F5790F0B92F9927B751A0F0D1F0660F2C
:1038B000771F881F991F1AF0BA95C9F712C0B13047
:1038C00081F06CD1B1E0089569C1672F782F882706
:1038D000B85F39F0B93FCCF3869577956795B39586
:1038E000D9F73EF490958095709561957F4F8F4FF5
:1038F0009F4F0895E89409C097FB3EF490958095FA
:10390000709561957F4F8F4F9F4F9923A9F0F92FA5
:1039100096E9BB279395F695879577956795B79523
:10392000F111F8CFFAF4BB0F11F460FF1BC06F5F09
:103930007F4F8F4F9F4F16C0882311F096E911C01B
:10394000772321F09EE8872F762F05C0662371F03C
:1039500096E8862F70E060E02AF09A95660F771F50
:10396000881FDAF7880F9695879597F90895990F2C
:103970000008550FAA0BE0E8FEEF16161706E80739
:10398000F907C0F012161306E407F50798F0621B5A
:10399000730B840B950B39F40A2661F0232B242B2F
:1039A000252B21F408950A2609F4A140A6958FEF4E
:1039B000811D811D089597F99F6780E870E060E0A0
:1039C0000895882371F4772321F09850872B762F60
:1039D00007C0662311F499270DC09051862B70E023
:1039E00060E02AF09A95660F771F881FDAF7880F34
:1039F0009695879597F908959F3F49F0915028F43F
:103A0000869577956795B7959F5F80389F4F880F0C
:103A10009695879597F908959FEF80EC0895DF9329
:103A2000CF931F930F93FF92EF92DF927B018C0154
:103A3000689405C0DA2EEF01CFD0FE01E894A5917D
:103A40002591359145915591AEF3EF01EBDDFE01E6
:103A50009701A801DA9479F7DF90EF90FF900F912A
:103A60001F91CF91DF91089500240A94161617062E
:103A700018060906089500240A941216130614065F
:103A800005060895C9CF59D0E8F3E894EFEFBB27B6
:103A90003FE048EC5FE76B3D73078407950708F14B
:103AA000FF279F57B25A6A4D7F40894CF04032F44D
:103AB000BE556542704F8643FF4F0894EE1F9150EC
:103AC00030F0BB0F661F771F881FFF1FEBCF9EE7ED
:103AD000882332F0BB0F661F771F881F9A95C1F7A6
:103AE0009395E09589CF092E0394000C11F4882357
:103AF00052F0BB0F40F4BF2B11F460FF04C06F5FA6
:103B00007F4F8F4F9F4F0895EF93E0FF06C0A2EACB
:103B10002AED3FE049EC5FEB85DDE5DF0F90039494
:103B200001FC9058E5E9F0E010C157FD9058440FB2
:103B3000551F59F05F3F71F04795880F97FB991F0C
:103B400061F09F3F79F087950895121613061406C9
:103B5000551FF2CF4695F1DF08C016161706180656
:103B6000991FF1CF86957105610508940895E5DFE9
:103B7000A0F0BEE7B91788F4BB279F3860F416168B
:103B8000B11D672F782F8827985FF7CF8695779597
:103B90006795B11D93959639C8F30895E894BB27AE
:103BA00066277727CB0197F90895E1DE08F48FEFB8
:103BB00008959B01AC0160E070E080E89FE301CED6
:103BC0000BD091CF51DF28F056DF18F0952309F084
:103BD000F2CE22CF1124E3CFA8DFA0F3959FD1F33B
:103BE000950F50E0551F629FF001729FBB27F00DAB
:103BF000B11D639FAA27F00DB11DAA1F649F662700
:103C0000B00DA11D661F829F2227B00DA11D621F4E
:103C1000739FB00DA11D621F839FA00D611D221F08
:103C2000749F3327A00D611D231F849F600D211DEC
:103C3000822F762F6A2F11249F5750408AF0E1F08F
:103C400088234AF0EE0FFF1FBB1F661F771F881FD8
:103C500091505040A9F79E3F510570F0ACCE9FCFD8
:103C60005F3FECF3983EDCF3869577956795B795C3
:103C7000F795E7959F5FC1F7FE2B880F911D9695ED
:103C8000879597F908959F93FEDE0F9007FCEE5FEE
:103C90003BCF11F40EF4C0CEAFCE4FDFD0F399235B
:103CA000D9F3CEF39F57550B87FF48D0569597957C
:103CB000B0E020F4660F771F881FBB1F1F930F9380
:103CC00000249001A0018001F001A0E80E0F1F1F49
:103CD0000A1E511D601B710B8009B50B48F4600F63
:103CE000711F801DB51F0E1B1F0B0A0A510907C04B
:103CF0002E0F3F1F4A1F0E0F1F1F0A1E511D660F5A
:103D0000771F881FBB1FA695F795E795F8F606174E
:103D1000170708065B07211D311D411D0F911F91DB
:103D2000B901842F9158880F9695879508959B0126
:103D3000AC0146CF1CDE880B990B08959150504082
:103D4000660F771F881FD2F708959F938F937F93F5
:103D50006F93FF93EF939B01AC0132DFEF91FF91E3
:103D60005EDE2F913F914F915F912ACF629FD001EC
:103D7000739FF001829FE00DF11D649FE00DF11D26
:103D8000929FF00D839FF00D749FF00D659FF00DD5
:103D90009927729FB00DE11DF91F639FB00DE11DC2
:103DA000F91FBD01CF0111240895991B79E004C0CA
:103DB000991F961708F0961B881F7A95C9F780956A
:103DC000089597FB092E07260AD077FD04D049D025
:103DD00006D000201AF4709561957F4F0895F6F78C
:103DE000909581959F4F0895A1E21A2EAA1BBB1BA7
:103DF000FD010DC0AA1FBB1FEE1FFF1FA217B307B7
:103E0000E407F50720F0A21BB30BE40BF50B661FCC
:103E1000771F881F991F1A9469F760957095809590
:103E200090959B01AC01BD01CF01089597FB092E30
:103E300005260ED057FD04D0D7DF0AD0001C38F479
:103E400050954095309521953F4F4F4F5F4F0895C6
:103E5000F6F790958095709561957F4F8F4F9F4FA6
:103E60000895AA1BBB1B51E107C0AA1FBB1FA617C1
:103E7000B70710F0A61BB70B881F991F5A95A9F713
:103E800080959095BC01CD010895EE0FFF1F059020
:103E9000F491E02D0994911106C0803219F08950F7
:103EA0008550D0F708959927882708952F923F923B
:103EB0004F925F926F927F928F929F92AF92BF923A
:103EC000CF92DF92EF92FF920F931F93CF93DF93E6
:103ED000CDB7DEB7CA1BDB0B0FB6F894DEBF0FBE43
:103EE000CDBF09942A88398848885F846E847D8490
:103EF0008C849B84AA84B984C884DF80EE80FD8092
:103F00000C811B81AA81B981CE0FD11D0FB6F89407
:0E3F1000DEBF0FBECDBFED010895F894FFCFC8
:103F1E006F6B006875683F2047004875683F204DFD
:103F2E00007374617274004772626C20312E30001F
:103F3E00473930006E616E00696E66006F766600FE
:103F4E002E000000404200002042000040420000CF
:103F5E0020420000404200002042D0070000D0075F
:103F6E00000001000A000B00FFFF11001000090005
:103F7E000300FFFF0D000C000F00FFFFFFFFFFFF10
:103F8E00FFFF01005A000000003F01010100000088
:0E3F9E0000CB1773185E1792177217BB17002F
:00000001FF
